:1000000026C035C034C033C032C022C130C02FC07A
:100010002EC02DC02CC02BC02AC029C028C0000073
:10002000000037000000000038000000000036002B
:10003000020202020202020202020102040810206D
:100040002004100801020000040000000000112438
:100050001FBECFE5D2E0DEBFCDBF20E0A0E6B0E01E
:1000600001C01D92A037B207E1F73CD1FCC1C8CF57
:10007000823089F018F4813051F00895833019F0FE
:10008000843009F008958CB58F7D8CBD08958AB5B4
:100090008F778ABD08958AB58F7DFBCF1F93CF934D
:1000A000DF93282F30E0F901EC5BFF4F8491F901D9
:1000B000E65CFF4FD491F901E05DFF4FC491CC2382
:1000C000A1F0162F8111D4DFEC2FF0E0EE0FFF1F0F
:1000D000EC5DFF4FA591B4918FB7F894EC9111119D
:1000E00008C0D095DE23DC938FBFDF91CF911F91A5
:1000F0000895DE2BF8CFCF93DF9390E0FC01E65C10
:10010000FF4F2491805D9F4FFC0184918823C9F0AB
:1001100090E0880F991FFC01E25EFF4FA591B4911A
:10012000FC01EC5DFF4FC591D49161110DC09FB7EB
:10013000F8948C91209582238C938881282328839E
:100140009FBFDF91CF910895623051F49FB7F8942B
:100150003C91822F809583238C93E8812E2BEFCFC7
:100160008FB7F894EC912E2B2C938FBFEACF3FB72B
:10017000F8948091610090916200A0916300B09129
:10018000640022B708B601FE05C02F3F19F00196A2
:10019000A11DB11D3FBFBA2FA92F982F8827BC01E1
:1001A000CD01620F711D811D911D46E0660F771F05
:1001B000881F991F4A95D1F708958F929F92AF9209
:1001C000BF92CF92DF92EF92FF9261E084E093DFE3
:1001D00060E084E063DFCBDF4B015C018CE2C82E82
:1001E000DD24D394E12CF12CC2DF681979098A0946
:1001F0009B09683E734081059105B0F321E0C21A66
:10020000D108E108F10888EE880E83E0981EA11C51
:10021000B11CC114D104E104F10431F760E084E0C1
:10022000FF90EF90DF90CF90BF90AF909F908F9016
:1002300062CFCF93C82F682F617080E02FDF6C2FC3
:10024000627081E02BDF6C2F647082E0CF9126CF4B
:100250001F920F920FB60F9211242F933F938F93FB
:100260009F93AF93BF938091650090916600A0919A
:100270006700B09168003091600020E3230F2D37B4
:1002800058F54096A11DB11D209360008093650034
:1002900090936600A0936700B0936800809161001E
:1002A00090916200A0916300B09164000196A11D3D
:1002B000B11D8093610090936200A0936300B0939E
:1002C0006400BF91AF919F918F913F912F910F90BB
:1002D0000FBE0F901F90189523EB230F4196A11D81
:1002E000B11DD2CF78948AB582608ABD8AB581600B
:1002F0008ABD83B7826083BF83B7816083BF89B7BC
:10030000826089BF80B7826080BF3298319A309A0C
:10031000379A8CB580648CBD61E080E0ECDE61E0F2
:1003200081E0E9DE61E082E0E6DE62E083E0E3DED8
:1003300090E080E082D0809369007BDF3EDFC7E4FD
:10034000D0E00DE310E093E3E92E90E0F92E20E0F9
:10035000C22E20E0D22EAA24A394FE018491F8019B
:10036000B490F70194909920B1F0811181DEE92DCC
:10037000F0E0EE0FFF1FE65DFF4FA591B4919C9159
:1003800080916F00B92239F081114FC0C114D1049E
:1003900021F336DEE2CF80916F00811115C0A0926B
:1003A0006F002FB7F8948091650090916600A0913E
:1003B0006700B09168002FBF80936B0090936C0032
:1003C000A0936D00B0936E002FB7F89480916500F4
:1003D00090916600A0916700B09168002FBF409196
:1003E0006B0050916C0060916D0070916E00841BE9
:1003F000950BA60BB70B813A9F40A105B10530F2D2
:1004000080916A008111C2CFA0926A0090E080E0E2
:1004100014D061E0680F6093690090E080E015D02F
:100420008091690006DFC9DEB1CF80916A00811139
:1004300010926A0010926F00A9CFE199FECF9FBB86
:100440008EBBE09A99278DB30895262FE199FECFB0
:100450001CBA9FBB8EBB2DBB0FB6F894E29AE19AF3
:0A0460000FBE01960895F894FFCF37
:00000001FF
